{
  "contractName": "StoreData",
  "abi": [
    {
      "inputs": [],
      "payable": false,
      "stateMutability": "nonpayable",
      "type": "constructor"
    },
    {
      "anonymous": false,
      "inputs": [
        {
          "indexed": false,
          "name": "_mac",
          "type": "string"
        }
      ],
      "name": "addEvent",
      "type": "event"
    },
    {
      "constant": false,
      "inputs": [
        {
          "name": "_mac",
          "type": "string"
        },
        {
          "name": "_ldata",
          "type": "uint256"
        }
      ],
      "name": "addData",
      "outputs": [],
      "payable": false,
      "stateMutability": "nonpayable",
      "type": "function"
    },
    {
      "constant": false,
      "inputs": [
        {
          "name": "_mac",
          "type": "string"
        }
      ],
      "name": "getCount",
      "outputs": [
        {
          "name": "",
          "type": "uint256"
        }
      ],
      "payable": false,
      "stateMutability": "nonpayable",
      "type": "function"
    },
    {
      "constant": false,
      "inputs": [
        {
          "name": "_mac",
          "type": "string"
        },
        {
          "name": "i",
          "type": "uint256"
        }
      ],
      "name": "getData",
      "outputs": [
        {
          "name": "",
          "type": "uint256"
        }
      ],
      "payable": false,
      "stateMutability": "nonpayable",
      "type": "function"
    }
  ],
  "bytecode": "0x608060405234801561001057600080fd5b506100606040805190810160405280601181526020017f30303a30613a39353a39643a36383a3136000000000000000000000000000000815250607b610240640100000000026401000000009004565b6100af6040805190810160405280601181526020017f30303a30613a39353a39643a36383a313600000000000000000000000000000081525060e0610240640100000000026401000000009004565b6100fe6040805190810160405280601181526020017f30303a30613a39353a39643a36383a313600000000000000000000000000000081525060d6610240640100000000026401000000009004565b61014d6040805190810160405280601181526020017f30303a30613a39353a39643a36383a313600000000000000000000000000000081525060cc610240640100000000026401000000009004565b61019c6040805190810160405280601181526020017f30303a30613a39353a39643a36383a313600000000000000000000000000000081525060ea610240640100000000026401000000009004565b6101eb6040805190810160405280601181526020017f30303a30623a32353a33643a36323a31360000000000000000000000000000008152506004610240640100000000026401000000009004565b61023b6040805190810160405280601181526020017f30303a30623a32353a33643a36323a31360000000000000000000000000000008152506101a7610240640100000000026401000000009004565b61040a565b6001826040518082805190602001908083835b6020831015156102785780518252602082019150602081019050602083039250610253565b6001836020036101000a0380198251168184511680821785525050505050509050019150509081526020016040518091039020600081548092919060010191905055506000826040518082805190602001908083835b6020831015156102f357805182526020820191506020810190506020830392506102ce565b6001836020036101000a038019825116818451168082178552505050505050905001915050908152602001604051809103902060206040519081016040528083815250908060018154018082558091505090600182039060005260206000200160009091929091909150600082015181600001555050507ffeaa3394626e6980c250ba082b4a3faae2e1157d0edacfc7514538999dc023f8826040518080602001828103825283818151815260200191508051906020019080838360005b838110156103cc5780820151818401526020810190506103b1565b50505050905090810190601f1680156103f95780820380516001836020036101000a031916815260200191505b509250505060405180910390a15050565b6104cd806104196000396000f300608060405260043610610057576000357c0100000000000000000000000000000000000000000000000000000000900463ffffffff1680633e33f2041461005c57806374020247146100e3578063f001a55114610156575b600080fd5b34801561006857600080fd5b506100cd600480360381019080803590602001908201803590602001908080601f0160208091040260200160405190810160405280939291908181526020018383808284378201915050505050509192919290803590602001909291905050506101d3565b6040518082815260200191505060405180910390f35b3480156100ef57600080fd5b50610154600480360381019080803590602001908201803590602001908080601f016020809104026020016040519081016040528093929190818152602001838380828437820191505050505050919291929080359060200190929190505050610262565b005b34801561016257600080fd5b506101bd600480360381019080803590602001908201803590602001908080601f016020809104026020016040519081016040528093929190818152602001838380828437820191505050505050919291929050505061042c565b6040518082815260200191505060405180910390f35b600080836040518082805190602001908083835b60208310151561020c57805182526020820191506020810190506020830392506101e7565b6001836020036101000a03801982511681845116808217855250505050505090500191505090815260200160405180910390208281548110151561024c57fe5b9060005260206000200160000154905092915050565b6001826040518082805190602001908083835b60208310151561029a5780518252602082019150602081019050602083039250610275565b6001836020036101000a0380198251168184511680821785525050505050509050019150509081526020016040518091039020600081548092919060010191905055506000826040518082805190602001908083835b60208310151561031557805182526020820191506020810190506020830392506102f0565b6001836020036101000a038019825116818451168082178552505050505050905001915050908152602001604051809103902060206040519081016040528083815250908060018154018082558091505090600182039060005260206000200160009091929091909150600082015181600001555050507ffeaa3394626e6980c250ba082b4a3faae2e1157d0edacfc7514538999dc023f8826040518080602001828103825283818151815260200191508051906020019080838360005b838110156103ee5780820151818401526020810190506103d3565b50505050905090810190601f16801561041b5780820380516001836020036101000a031916815260200191505b509250505060405180910390a15050565b60006001826040518082805190602001908083835b6020831015156104665780518252602082019150602081019050602083039250610441565b6001836020036101000a03801982511681845116808217855250505050505090500191505090815260200160405180910390205490509190505600a165627a7a72305820208c25f93951aab0c1e2c20bbb8b34f6645ada82d912427b976646322e210c2b0029",
  "source": "pragma solidity ^0.4.24;\n\ncontract StoreData {\n    struct currentData{\n        uint ldata;\n    }\n    mapping(string => currentData[]) mainData;\n    mapping(string=>uint) macCount;\n    event addEvent (\n    \tstring _mac\n    \t);\n    constructor(){\n        addData(\"00:0a:95:9d:68:16\",123);\n        addData(\"00:0a:95:9d:68:16\",224);\n        addData(\"00:0a:95:9d:68:16\",214);\n        addData(\"00:0a:95:9d:68:16\",204);\n        addData(\"00:0a:95:9d:68:16\",234);\n        addData(\"00:0b:25:3d:62:16\",4);\n        addData(\"00:0b:25:3d:62:16\",423);\n    }\n    function addData (string memory _mac,uint _ldata) public {\n        macCount[_mac]++;\n        mainData[_mac].push(currentData(_ldata));\n\t\temit addEvent(_mac);\n    }\n    function getCount(string memory _mac) public returns(uint){\n        return macCount[_mac];\n    }\n    function getData(string memory _mac,uint i) public returns(uint){\n        return mainData[_mac][i].ldata;\n    }\n}\n",
  "sourcePath": "/home/rogith/Desktop/FOG/contracts/StoreData.sol",
  "compiler": {
    "name": "solc",
    "version": "0.4.25+commit.59dbf8f1.Emscripten.clang"
  },
  "schemaVersion": "2.0.2",
  "updatedAt": "2020-02-03T03:44:32.787Z"
}